:020000001628C0
:0E0006008312031321088A00200882000800DC
:1000140003208A110A128000840AA00A0319A10A83
:08002400F003031D0A28080087
:10002C00013083160313880083128801831686011E
:10003C0083128601081823282028060AF00070086D
:10004C0086000B30FB002630FC005D30FD00FD0B04
:10005C002D28FC0B2D28FB0B2D280000000006087A
:10006C00093A031D482886010B30FB002630FC00A2
:10007C005D30FD00FD0B4028FC0B4028FB0B40289D
:08008C000000000023284928B0
:02400E004A2F37
:00000001FF
